:100000000C943C000C9459000C9459000C94590029
:100010000C9459000C9459000C9459000C945900FC
:100020000C9459000C9459000C9459000C945900EC
:100030000C9459000C9459000C94080D0C94590020
:100040000C9459000C9459000C9459000C945900CC
:100050000C9459000C9459000C9459000C945900BC
:100060000C9459000C9459000C9400000C9400005E
:100070000C9400000C94000011241FBECFEFD8E0B8
:10008000DEBFCDBF14E0A0E0B1E0E8EBF7E202C0D4
:1000900005900D92A832B107D9F724E0A8E2B4E0A8
:1000A00001C01D92AB36B207E1F70E94590F0C94C4
:1000B000DA130C940000FC0180E48FBB72BD61BDBB
:1000C000F89A0000000040B550E070E060E0408326
:1000D0005183628373838AB7582B40835183628331
:1000E000738387B7682B40835183628373838CB794
:1000F000782B40835183628373830895FC0186B714
:10010000806886BF86B7806186BF72BD61BD808111
:1001100080BD80819181A281B381892F9A2FAB2FDD
:10012000BB278ABF80819181A281B381CD01AA279B
:10013000BB2787BF80819181A281B3818B2F9927B3
:10014000AA27BB278CBF86B7806886BF86B78F7EFD
:1001500086BF84E48FBBF99A08959091C00095FF03
:10016000FCCF8093C6000895CF92DF92EF92FF926A
:10017000CF936B017C0149300CF048E0CFEFC40F06
:10018000CF3F31F4CF91FF90EF90DF90CF90089563
:1001900024E0C29FC0011124A701960104C0569516
:1001A0004795379527958A95D2F7C9018F7099277A
:1001B0008A3091052CF4805D0E94AD00C150E0CFE3
:1001C000895CFACFCF93DF93EC018991811103C051
:1001D000DF91CF91089590EE980F9F3518F40E940B
:1001E000AD00F3CF8D3029F48CE50E94AD0082E79D
:1001F000F6CF8A3029F48CE50E94AD008EE6EFCF71
:100200008CE50E94AD0088E70E94AD00FE013197A9
:100210006081062E000C770B880B990B42E00E9440
:10022000B400D3CF009711F00C94E20008954F92E0
:100230005F926F927F928F929F92AF92BF92CF9276
:10024000DF92EF92FF922B013C01C12CD12C760161
:10025000C394C301B201A70196010E9462132A3020
:1002600031054105510578F58AE0882E912CA12CA5
:10027000B12CC301B201A70196010E946213CA0109
:10028000B901A50194010E94621380E3860F0E94C8
:10029000AD00C701B601A50194010E946213690176
:1002A0007A01C114D104E104F10419F7FF90EF9031
:1002B000DF90CF90BF90AF909F908F907F906F9086
:1002C0005F904F900895AAE0B0E0A70196010E94C8
:1002D000A3136B017C01BDCFCF92DF92EF92FF920F
:1002E0006B017C01F7FE0BC08DE20E94AD00F09423
:1002F000E094D094C094C11CD11CE11CF11CC70136
:10030000B601FF90EF90DF90CF900C941701CF9241
:10031000DF92EF92FF926A017B010E9412018AE351
:100320000E94AD00C701B6010E946C018AE30E94E1
:10033000AD0080912E0490912F040E9412018AE357
:10034000FF90EF90DF90CF900C94AD00AB01BC011B
:1003500080912C0490912D040E94870183ED91E0FF
:100360000E94E2008AE30C94AD00CF92DF92EF92FC
:10037000FF92CF936B017C01C42F80E30E94AD00FC
:1003800088E70E94AD004C2F4F70440FC701B601A3
:10039000CF91FF90EF90DF90CF900C94B4008091BC
:1003A000300490913104892BF1F08DE092E00E94AD
:1003B000E20083E092E00E94E2008091300490919C
:1003C00031040E9412018091320490913304892BF0
:1003D00051F088EF91E00E94E20080913204909108
:1003E00033040C94120108954F925F926F927F92A2
:1003F0008F929F92AF92BF92CF92DF92EF92FF9235
:100400000F931F932B013C0149015A01C801B70109
:100410000091440410914504209146043091470412
:10042000012B022B032B61F4009148041091490425
:1004300020914A0430914B04012B022B032B31F005
:1004400061E070E084E594E00E94EF1048145904E4
:100450006A047B0419F10E94A6018DEE91E00E94CE
:10046000E200A601C301B2010E94B50187EE91E04E
:100470000E94E200A601C501B4010E94B5010E94DC
:10048000CF0181E090E0A0E0B0E08093440490933D
:100490004504A0934604B0934704D2CF1F910F9117
:1004A000FF90EF90DF90CF90BF90AF909F908F9094
:1004B0007F906F905F904F900895CF92DF92EF9270
:1004C000FF920F931F9380E098E792BD81BD1FBA02
:1004D000F89A0000000020B5022E000C330B440BEC
:1004E000550B81E4C82ED12C1AE2E12EF12C00E04C
:1004F00010E062E170E080E090E00E94F4011F9162
:100500000F91FF90EF90DF90CF9008954F925F9200
:100510006F927F928F929F92AF92BF92CF92DF9213
:10052000EF92FF920F931F93CF93DF93CDB7DEB778
:1005300028970FB6F894DEBF0FBECDBF6D837E83C4
:100540008F83988729833A834B835C832701380103
:10055000450156018091440490914504A0914604C0
:10056000B0914704892B8A2B8B2B61F4809148042E
:1005700090914904A0914A04B0914B04892B8A2B95
:100580008B2B31F061E070E084E594E00E94EF1085
:1005900029813A814B815C81CA01B9010E94101105
:1005A0009B01AC010E947D1129813A814B815C81C4
:1005B000882309F4A1C0CA01B9010E947D118111EB
:1005C000A2C0A8019701C801B7010E9410119B01A8
:1005D000AC010E947D11882319F1A8019701C8017F
:1005E000B7010E947D1181111BC020E030E0A901FC
:1005F00069817A818B819C810E947D11881F882767
:10060000881F91E0F82EF92620E030E0A901C8010A
:10061000B2010E947D11881F8827881FF8127CC0B4
:1006200029813A814B815C81C301B2010E94101182
:100630006B017C0120E030E0A9010E947D1187FF61
:1006400004C0F7FAF094F7F8F09420E030E0A90144
:100650006D817E818F8198850E947D1187FF09C001
:100660008D819E81AF81B885B0588D839E83AF8385
:10067000B887A7019601C701B6010E947D118111BB
:1006800016C0A7019601C701B6010E9410119B0177
:10069000AC010E947D1181110AC02D813E814F81E4
:1006A0005885C701B6010E94DC121816ACF5C501C9
:1006B000B4010E94A6018DEE91E00E94E2006981E2
:1006C0007A818B819C810E942D0D87EE91E00E94A2
:1006D000E200C301B2010E942D0D0E94CF0181E012
:1006E00090E0A0E0B0E08093440490934504A09390
:1006F0004604B093470446CFCA01B9010E947D1158
:10070000882309F48DCFA3019201C301B2010E9495
:100710007D11882309F484CF28960FB6F894DEBFA4
:100720000FBECDBFDF91CF911F910F91FF90EF9042
:10073000DF90CF90BF90AF909F908F907F906F9001
:100740005F904F9008952F923F924F925F926F92D9
:100750007F928F929F92AF92BF92CF92DF92EF9251
:10076000FF920F931F93CF93DF93CDB7DEB72A97F6
:100770000FB6F894DEBF0FBECDBFDC01FB012983AD
:100780003A834B835C83C801B7011601C0904404CF
:10079000D0904504E0904604F0904704CD28CE2840
:1007A000CF2861F4C0904804D0904904E0904A04F6
:1007B000F0904B04CD28CE28CF2831F061E070E0D6
:1007C00084E594E00E94EF10AE17BF0709F478C0EB
:1007D00081010F70112789809A80AB80BC80A501B0
:1007E000940121503109410951092D833E834F83E2
:1007F00058870130110581F00230110509F44AC013
:100800004D905D906D907C901397C080D180E28078
:10081000F38004E010E008C04C90C080512C712C93
:10082000612CD12CF12CE12C4C145D046E047F045E
:10083000C9F10E94A6018DED91E00E94E20069815C
:100840007A818B819C81681979098A099B090E94A8
:1008500017018DEE91E00E94E200A101C301B201F7
:100860000E94B50187EE91E00E94E200A101C7015C
:10087000B6010E94B5010E94CF0181E090E0A0E0A6
:10088000B0E08093440490934504A0934604B09351
:10089000470494CF4D905C901197C080D180712C0B
:1008A000612CC0CFA00FB11FE00FF11F8D809E8083
:1008B000AF80B88481149104A104B10409F08FCFF2
:1008C0002A960FB6F894DEBF0FBECDBFDF91CF9151
:1008D0001F910F91FF90EF90DF90CF90BF90AF905E
:1008E0009F908F907F906F905F904F903F902F9050
:1008F0000895CF92DF92EF92FF920F931F93CF93C1
:10090000DF93CDB7DEB72A970FB6F894DEBF0FBEE0
:10091000CDBF85E0E0E0F1E0DE01119601900D929F
:100920008A95E1F7FE01369685E0DF011D928A95F2
:10093000E9F7BE016F5F7F4F8FE098E7AF0134E0CA
:10094000DB012D91BD0192BD81BD20BD3FBBF99A58
:1009500092BD81BD1FBAF89A0000000020B5DA01EF
:100960002D93AD0101966E177F0751F781E4C82ED4
:10097000D12C1DE4E12EF12C00E010E025E030E068
:1009800040E050E0CE0101960E94A3032A960FB6E4
:10099000F894DEBF0FBECDBFDF91CF911F910F91B5
:1009A000FF90EF90DF90CF900895CF92DF92EF927B
:1009B000FF92CF93DF9300D0CDB7DEB79A838983C0
:1009C000ECE2F4E073836283052E000C660B770B78
:1009D000408751876287738784859585A685B7850B
:1009E0000196A11DB11D84879587A687B7871582BB
:1009F0001482178216828091280490912904A09174
:100A00002A04B0912B0480A391A3A2A3B3A384E5ED
:100A100094E00E94CF10892B21F42D9AE981FA816C
:100A2000099584E594E00E94CF10892B09F42D9854
:100A30008091280490912904A0912A04B0912B045C
:100A4000ECE2F4E084A395A3A6A3B7A3848D958DCF
:100A5000A68DB78D892B8A2B8B2BC9F1848995891B
:100A6000A689B7890196A11DB11D848B958BA68B94
:100A7000B78BECE2F4E0108E118E128E138E148E72
:100A8000158E168E178EC4A0D5A0E6A0F7A080A163
:100A900091A1A2A1B3A1C81AD90AEA0AFB0A8AE164
:100AA00092E00E94E200C701B6010E9417018DE1A9
:100AB00092E00E94E2008AE00E94AD000F900F9049
:100AC000DF91CF91FF90EF90DF90CF900895808DD0
:100AD000918DA28DB38D892B8A2B8B2B69F4408548
:100AE000518562857385808191810E94870188ED9F
:100AF00091E00E94E200BDCF80899189A289B389EB
:100B00000196A11DB11D808B918BA28BB38BB1CFB0
:100B10006F927F928F929F92AF92BF92CF92DF920D
:100B2000EF92FF920F931F93CF93DF9300D000D0EB
:100B3000CDB7DEB78C015B016B013B01640E751E06
:100B40004B0183E0882299248114910431F1862F8E
:100B5000837094E0E92EE81AF12C4E155F0508F435
:100B60007A0165018CEFC822B601CE0101960E9480
:100B70005B00A701B80181E090E08C0F9D1F880DFC
:100B8000991D0E94D113B601CE0101960E947E00EC
:100B90006501CE0CDF1C0E0D1F1DF801760184E0EF
:100BA000E80EF11C6E147F0440F5C614D70490F4CF
:100BB0006C18B601CE0101960E945B00462D50E0F4
:100BC000B801CE0101960E94D113B601CE01019663
:100BD0000E947E000F900F900F900F90DF91CF91A9
:100BE0001F910F91FF90EF90DF90CF90BF90AF904B
:100BF0009F908F907F906F9008950C5F1F4F808122
:100C00009181A281B38189839A83AB83BC83B6012E
:100C1000CE0101960E947E006701BFCFCF92DF9286
:100C2000EF92FF920F931F93CF93DF9300D01F9209
:100C3000CDB7DEB71A821B828FEF898341E050E087
:100C400060E270E0CE0101960E94880581E4C82E22
:100C5000D12C17EFE12EF12C00E010E021E030E084
:100C600040E050E0BE016E5F7F4FCE0103960E94D0
:100C7000A3030F900F900F90DF91CF911F910F91D1
:100C8000FF90EF90DF90CF9008952F923F924F9278
:100C90005F926F927F928F929F92AF92BF92CF920C
:100CA000DF92EF92FF920F931F93CF93DF9300D0C9
:100CB00000D0CDB7DEB76C014B017A01411551056B
:100CC00009F451C05B01637010E000E011F1A62E41
:100CD000B12C04E010E00A191B094017510708F471
:100CE0008A01B4016C7FCE0101960E945B0061E035
:100CF00070E06C0F7D1F6A0D7B1DA801C6010E946C
:100D0000D1130E151F0578F55401A00EB11EC00EAB
:100D1000D11E2701401A510A56944794569447947D
:100D20004201360115012C183D088114910491F5FA
:100D3000440C551C440C551CB2016A0D7B1D040D5E
:100D4000151DC40CD51C0E151F0568F4E01AF10A18
:100D5000CE0101960E945B00A701BE016F5F7F4F2D
:100D6000C6010E94D1130F900F900F900F90DF914A
:100D7000CF911F910F91FF90EF90DF90CF90BF9098
:100D8000AF909F908F907F906F905F904F903F902B
:100D90002F900895B301620D731DCE0101960E943C
:100DA0005B0089819A81AB81BC81F301819391932E
:100DB000A193B1933F01F1E08F1A9108B6CFCF9381
:100DC000DF9300D000D0CDB7DEB719821A821B8224
:100DD0001C8244E050E0BC01CE0101960E94450611
:100DE00069817A818B819C810F900F900F900F9079
:100DF000DF91CF910895AF92BF92CF92DF92EF92A1
:100E0000FF920F931F938BE098E70E94DF062EE37B
:100E1000A22EB12CC12CD12C7B018C0124E538EF02
:100E20004DE250E46DE77DE180E996E20E948602A2
:100E30001F910F91FF90EF90DF90CF90BF90AF90F8
:100E400008954F925F926F927F928F929F92AF928E
:100E5000BF92CF92DF92EF92FF920F931F93CF93A7
:100E6000DF93CDB7DEB7AC970FB6F894DEBF0FBEF9
:100E7000CDBF84E1E5E0F1E0DE01119601900D9235
:100E80008A95E1F77E0185E1E80EF11C84E1F70126
:100E900011928A95E9F7CE0101964C010FE018E70F
:100EA000370157012C01F20181919191A191B191EA
:100EB0002F0189A79AA7ABA7BCA744E050E0B801CF
:100EC000CE0189960E948805C8010E94DF06F501BF
:100ED00061937193819391935F01085F1F4F4E144B
:100EE0005F0409F7F4E14F0E511CF301E190F1901A
:100EF000019111913F01F401219131914191519161
:100F00004F0188E7A82EB12CC12CD12C6DE77DE1D3
:100F100080E996E20E9486026414750431F7AC966B
:100F20000FB6F894DEBF0FBECDBFDF91CF911F91FA
:100F30000F91FF90EF90DF90CF90BF90AF909F9078
:100F40008F907F906F905F904F900895AF92BF9277
:100F5000CF92DF92EF92FF920F931F9387E098E773
:100F60000E94DF0629E3A22EB12CC12CD12C7B01DB
:100F70008C0123EC35EF48E450E467E177EB81ED39
:100F800098E30E9486021F910F91FF90EF90DF90EF
:100F9000CF90BF90AF9008954F925F926F927F92E3
:100FA0008F929F92AF92BF92CF92DF92EF92FF9279
:100FB0000F931F93CF93DF93CDB7DEB7AC970FB6E8
:100FC000F894DEBF0FBECDBF84E1E9E1F1E0DE01C0
:100FD000119601900D928A95E1F77E0185E1E80E68
:100FE000F11C84E1F70111928A95E9F7CE0101968F
:100FF0004C010FE018E7370157012C01F2018191F4
:101000009191A191B1912F0189A79AA7ABA7BCA7F4
:1010100044E050E0B801CE0189960E948805C801DD
:101020000E94DF06F50161937193819391935F01B3
:101030000C5F1F4F4E145F0409F7F4E14F0E511C73
:10104000F301E190F190019111913F01F40121919F
:101050003191419151914F018CE6A82EB12CC12CB8
:10106000D12C67E177EB81ED98E30E94860264144E
:10107000750431F7AC960FB6F894DEBF0FBECDBF46
:10108000DF91CF911F910F91FF90EF90DF90CF9064
:10109000BF90AF909F908F907F906F905F904F9098
:1010A0000895CF92DF92EF92FF920F931F93CF9309
:1010B000DF93CDB7DEB728970FB6F894DEBF0FBE2B
:1010C000CDBF80912D0190912E01A0912F01B09163
:1010D000300189839A83AB83BC8344E050E06FE0A6
:1010E00078E7CE0101960E94880544E050E06FE069
:1010F00078E7CE0105960E94450681E4C82ED12CE2
:1011000019E8E12EF12C00E010E024E030E040E0AE
:1011100050E0BE016B5F7F4FCE0101960E94A3039A
:1011200028960FB6F894DEBF0FBECDBFDF91CF91EA
:101130001F910F91FF90EF90DF90CF900895CF9285
:10114000DF92EF92FF920F931F93CF93DF9300D024
:1011500000D000D0CDB7DEB780913101909132013F
:10116000A091330189839A83AB8343E050E060E12F
:1011700078E7CE0101960E94880543E050E060E1E7
:1011800078E7CE0104960E94450681E4C82ED12C52
:1011900015E9E12EF12C00E010E023E030E040E022
:1011A00050E0BE016C5F7F4FCE0101960E94A30309
:1011B00026960FB6F894DEBF0FBECDBFDF91CF915C
:1011C0001F910F91FF90EF90DF90CF900895CF92F5
:1011D000DF92EF92FF920F931F93CF93DF93CDB7E0
:1011E000DEB764970FB6F894DEBF0FBECDBF8AE0BE
:1011F000E4E3F1E0DE01119601900D928A95E1F7AA
:101200004AE050E061E178E7CE0101960E9488054E
:101210004AE050E061E178E7CE010B960E94450676
:1012200081E4C82ED12C11EAE12EF12C00E010E06F
:101230002AE030E040E050E0BE01655F7F4FCE0124
:1012400001960E94A30364960FB6F894DEBF0FBE0A
:10125000CDBFDF91CF911F910F91FF90EF90DF9065
:10126000CF900895CF92DF92EF92FF920F931F934A
:10127000CF93DF9300D0CDB7DEB787E7898341E016
:1012800050E062E178E7CE0101960E94880541E0D6
:1012900050E062E178E7CE0102960E94450681E4C3
:1012A000C82ED12C1DEAE12EF12C00E010E021E047
:1012B00030E040E050E0BE016E5F7F4FCE0101960E
:1012C0000E94A3030F900F90DF91CF911F910F9178
:1012D000FF90EF90DF90CF900895CF92DF92EF9242
:1012E000FF920F931F93CF93DF93CDB7DEB7649731
:1012F0000FB6F894DEBF0FBECDBF86E0EEE3F1E09F
:10130000DE01119601900D928A95E1F746E050E0DA
:1013100070E060E0CE0101960E94880582E18B8B2F
:1013200084E38C8B42E050E062E070E0CE014396B3
:101330000E94880586E0E4E4F1E0DE011796019062
:101340000D928A95E1F746E050E070E060E0CE0152
:101350000D960E94450681E4C82ED12C11ECE12E99
:10136000F12C00E010E026E030E040E050E0BE016B
:10137000635F7F4FCE0107960E94A30364960FB66A
:10138000F894DEBF0FBECDBFDF91CF911F910F91BB
:10139000FF90EF90DF90CF900895CF92DF92EF9281
:1013A000FF920F931F93CF93DF93CDB7DEB7609774
:1013B0000FB6F894DEBF0FBECDBF88E0EAE4F1E0DF
:1013C000DE01119601900D928A95E1F748E050E018
:1013D00066E070E0CE0101960E94880548E050E08A
:1013E00066E070E0CE0109960E94450681E4C82EB1
:1013F000D12C11EDE12EF12C00E010E028E030E0DE
:1014000040E050E0BE01675F7F4FCE0101960E9431
:10141000A30360960FB6F894DEBF0FBECDBFDF9179
:10142000CF911F910F91FF90EF90DF90CF90089593
:10143000CF92DF92EF92FF920F931F93CF93DF93A0
:10144000CDB7DEB762970FB6F894DEBF0FBECDBF43
:1014500088E0E2E5F1E0DE01119601900D928A95B7
:10146000E1F785E0EAE5F1E0DE01199601900D92E1
:101470008A95E1F748E050E060E170E0CE01019626
:101480000E94880545E050E062E170E0CE010E96D2
:101490000E94450681E4C82ED12C1EEDE12EF12CD0
:1014A00000E010E025E030E040E050E0BE01625F87
:1014B0007F4FCE0109960E94A30362960FB6F8945F
:1014C000DEBF0FBECDBFDF91CF911F910F91FF9077
:1014D000EF90DF90CF900895CF92DF92EF92FF923E
:1014E0000F931F93CF93DF93CDB7DEB760970FB6FF
:1014F000F894DEBF0FBECDBF88E0EFE5F1E0DE017E
:10150000119601900D928A95E1F780916701909173
:101510006801A0916901B0916A0189879A87AB87B8
:10152000BC8748E050E068E170E0CE0101960E947F
:10153000880544E050E06BE170E0CE010D960E941A
:10154000450681E4C82ED12C1BEEE12EF12C00E0E3
:1015500010E024E030E040E050E0BE01635F7F4FE8
:10156000CE0109960E94A30360960FB6F894DEBFE1
:101570000FBECDBFDF91CF911F910F91FF90EF90E4
:10158000DF90CF9008952F923F924F925F926F928B
:101590007F928F929F92AF92BF92CF92DF92EF9203
:1015A000FF920F931F93CF93DF93CDB7DEB7A8972A
:1015B0000FB6F894DEBF0FBECDBF412C512C3201C7
:1015C0004394420180E4A82EB12CFE01759610E0F0
:1015D00000E01F0101930F5F1F4F08151905D1F798
:1015E000A801B501C1010E948805A801B501CE017D
:1015F00001960E94450691E4C92ED12C12E1E12EFC
:10160000FF24F39400E010E0A3019201BE016F5F9C
:101610007F4FC1010E94A3038FEFA81AB80A84E488
:10162000A816B10491F68FEF481A580A680A780A8A
:1016300085E1481651046104710419F6A8960FB6A5
:10164000F894DEBF0FBECDBFDF91CF911F910F91F8
:10165000FF90EF90DF90CF90BF90AF909F908F90D2
:101660007F906F905F904F903F902F900895CF9212
:10167000DF92EF92FF920F931F93CF93DF93CDB73B
:10168000DEB76A970FB6F894DEBF0FBECDBF86E017
:10169000EBE6F1E0DE01519601900D928A95E1F7BB
:1016A00046E050E061E870E0CE0141960E94880576
:1016B0008091710190917201A0917301B0917401B8
:1016C0008F8B988FA98FBA8F44E050E063E870E069
:1016D000CE0147960E94880588E0E5E7F1E0DE014B
:1016E000119601900D928A95E1F748E050E061E88B
:1016F00070E0CE0109960E94450681E4C82ED12CE7
:1017000019E2E12EFF24F39400E010E028E030E03D
:1017100040E050E0BE01675F7F4FCE0101960E941E
:10172000A3036A960FB6F894DEBF0FBECDBFDF915C
:10173000CF911F910F91FF90EF90DF90CF90089580
:10174000CF92DF92EF92FF920F931F93CF93DF938D
:1017500000D000D0CDB7DEB719821A821B821C825E
:1017600044E050E063E078E7CE0101960E94450630
:1017700029813A814B815C8184E4C82ED12C14E309
:10178000E12EF12C00E010E06DEC7BEA89E897E6B1
:101790000E94F4010F900F900F900F90DF91CF9166
:1017A0001F910F91FF90EF90DF90CF900895AF922F
:1017B000BF92CF92DF92EF92FF920F931F93CF933E
:1017C000DF93CDB7DEB7E0970FB6F894DEBF0FBE5C
:1017D000CDBF84E1EDE7F1E0DE01119601900D92BD
:1017E0008A95E1F77E0185E1E80EF11C84E1F701BD
:1017F00011928A95E9F7CE0101965C010FE018E796
:101800006701F50181919191A191B1915F0189A742
:101810009AA7ABA7BCA744E050E0B801CE018996D7
:101820000E9488051DA61EA61FA618AA44E050E027
:10183000B801CE018D960E9445068DA59EA5AFA547
:10184000B8A9F60181939193A193B1936F010C5FB5
:101850001F4FAE14BF04A9F684E4C82ED12C11E6A4
:10186000E12EF12C00E010E025E030E040E050E017
:10187000B501CE0101960E94A303E0960FB6F8943D
:10188000DEBF0FBECDBFDF91CF911F910F91FF90B3
:10189000EF90DF90CF90BF90AF900895CF92DF92FE
:1018A000EF92FF920F931F93CF93DF9300D0CDB7AA
:1018B000DEB71A82198242E050E061E078E7CE019B
:1018C00001960E94450629813A81032E000C440BA3
:1018D000550B82E4C82ED12C1FE2E12EF12C00E042
:1018E00010E066E574E380E090E00E94F4010F9060
:1018F0000F90DF91CF911F910F91FF90EF90DF90AC
:10190000CF900895AF92BF92CF92DF92EF92FF9265
:101910000F931F93CF93DF93CDB7DEB768970FB6C2
:10192000F894DEBF0FBECDBF8AE0E1E9F1E0DE0151
:10193000119601900D928A95E1F77E018BE0E80EF9
:10194000F11C8AE0F70111928A95E9F7CE01019620
:101950005C010FE018E76701F501819191915F014A
:101960009E8B8D8B42E050E0B801CE0145960E94DF
:101970008805188E1F8A42E050E0B801CE014796D4
:101980000E9445068F89988DF601819391936F018E
:101990000E5F1F4FAE14BF04F9F682E4C82ED12C9F
:1019A00017E5E12EF12C00E010E025E030E040E00A
:1019B00050E0B501CE0101960E94A30368960FB6D0
:1019C000F894DEBF0FBECDBFDF91CF911F910F9175
:1019D000FF90EF90DF90CF90BF90AF900895E2EF2F
:1019E000F0E08081846090E890838083ABE4BDE187
:1019F0001197F1F700C0000080818F798062908399
:101A0000808300000000E1E6F0E090839083089579
:101A10001F920F920FB60F9211248F939F93AF9343
:101A2000BF938091280490912904A0912A04B09139
:101A30002B040196A11DB11D8093280490932904C5
:101A4000A0932A04B0932B04BF91AF919F918F91E3
:101A50000F900FBE0F901F9018952F923F924F92AC
:101A60005F926F927F928F929F92AF92BF92CF922E
:101A7000DF92EF92FF920F931F93CF93DF93CDB737
:101A8000DEB760970FB6F894DEBF0FBECDBF6B0117
:101A90007C0120E030E0A9010E947D1187FF07C092
:101AA0008DE20E94AD00F7FAF094F7F8F09420E090
:101AB00030E0A901C701B6010E947D1181111CC04F
:101AC00080E192E060960FB6F894DEBF0FBECDBF06
:101AD000DF91CF911F910F91FF90EF90DF90CF900A
:101AE000BF90AF909F908F907F906F905F904F903E
:101AF0003F902F900C94E200A7019601C701B60118
:101B00000E947D11882319F082E192E0DBCFA701CA
:101B10009601C701B6010E9410119B01AC010E9401
:101B20007D11882319F086E192E0CCCFCE01019699
:101B30001C0180E1F10111928A95E9F720E030E083
:101B400040E85FE3C701B6010E947D1187FFF1C045
:101B500010E000E00CC029EF32E045E150E5C7019C
:101B6000B6010E94E1126B017C010A5011092DECB3
:101B70003CEC4CEC5DE3C701B6010E947D1187FD92
:101B8000EACF812C912C50E8A52E5FE3B52EA5015C
:101B90009401C701B6010E94E1122B013C0120E231
:101BA0003CEB4EEB5CE40E947D1187FDB5C0812CBF
:101BB000912C5401A3019201C301B2010E941111A1
:101BC0000E94F4116F5F7F4F8F4F9F4F22E030E0F4
:101BD00040E050E00E94841369017A0120FF15C0A3
:101BE000CA01B9010E942C12A30192010E94101196
:101BF00020E030E040E05FE30E947D11811105C0EC
:101C000081E0C81AD108E108F108240135014C0C23
:101C10005D1C6E1C7F1C41149AEC59069AE96906FA
:101C20009BE379064CF00F5F1F4F412C21EE522EA3
:101C300025EF622E25E0722EC8010C96AA24BB2443
:101C4000A01AB10A0D9718F098E0A92EB12C0A0D30
:101C50001B1D8AE0C82ED12CE12CF12CA114B1045B
:101C600009F0EEC0410161017601E218F308411468
:101C700051046104710409F0F4C0AE14BF040CF007
:101C8000F0C0F1E0EF1AF108F101EE0DFF1D8081C7
:101C90000E94AD00E114F10409F0F2C00115110534
:101CA00011F185E60E94AD0017FFF2C08DE20E949F
:101CB000AD001195019511092AE030E001151105DB
:101CC00009F0EAC0F2E0EF16F1040CF4E5C081E09F
:101CD000E81AF108F101EE0DFF1D80810E94AD00B0
:101CE000E114F104A1F760960FB6F894DEBF0FBEC1
:101CF000CDBFDF91CF911F910F91FF90EF90DF90BB
:101D0000CF90BF90AF909F908F907F906F905F909B
:101D10004F903F902F90089520E030E040E251E452
:101D2000C501B4010E94E1124B015C01015011098F
:101D30002ECF28E23BE64EE65EE4C701B6010E94E4
:101D4000DC1218160CF464C0C701B6010E94F4112D
:101D50004B015C010E942C129B01AC01C701B60132
:101D60000E9410116B017C01412C512C30E8632E34
:101D70003FE3732E10E000E08114F1EE9F06F5EFD3
:101D8000AF06F5E0BF060CF446C0A7019601C301FB
:101D9000B2010E94E1122B013C010CCF29EF32E08D
:101DA00045E150E5C701B6010E9482116B017C013B
:101DB000065F1F4F2BE63BE04EE55DE5C701B60130
:101DC0000E94DC12181654F3812C912C40E8A42EAA
:101DD0004FE3B42EA5019401C701B6010E94821100
:101DE0002B013C0128E23BE64EE65EE40E94DC1259
:101DF00018160CF0DCCE20E030E040E251E4C501E2
:101E0000B4010E94E1124B015C010F5F1F4FE2CF52
:101E100010E000E0CFCFAAE0B0E0A50194010E945D
:101E2000A3134B015C0120E030E040E251E4C30128
:101E3000B2010E94E1122B013C01015011099CCF1B
:101E4000C301B201A70196010E948413672B682B7E
:101E5000692B09F007CF29013A01E1E0AE1AB10878
:101E6000FDCEC301B2012AE030E040E050E00E9424
:101E70008413605DF60161936F0129013A01F4CE8C
:101E8000EA14FB0409F0FDCE8EE20E94AD00F9CE0B
:101E90008BE20E94AD0010CF8FEFE81AF80AC8015C
:101EA000B9010E944E13805DF40181934F018B01B3
:101EB00005CF0E94EF0C80E886BF8CE486BF259A90
:101EC00082E292E090932D0480932C0410922F04D0
:101ED00010922E041092340410923504109236049D
:101EE00010923704109238041092390410923A0478
:101EF00010923B0410923C0410923D0410923E0458
:101F000010923F0410924004109241041092420437
:101F10001092430410924404109245041092460417
:101F200010924704109248041092490410924A04F7
:101F300010924B041092310410923004109233042A
:101F4000109232040E94EF0C83E090E09093C50061
:101F50008093C40082E08093C00098E19093C10018
:101F600096E09093C20084BD94E095BD95E797BD3F
:101F700080936E00789440E351E061E472E08DE577
:101F800092E00E94D50441E351E065E572E08EE401
:101F90009CE00E94D50442E351E069E672E080EAE9
:101FA0009BE00E94D50443E351E06EE772E086EACD
:101FB00097E00E94D50444E351E063E972E08BEFBF
:101FC00096E00E94D50445E351E069EA72E089E7B2
:101FD00094E00E94D50446E351E06EEB72E082E8A3
:101FE0009CE00E94D50447E351E063ED72E087ED89
:101FF0009BE00E94D50448E351E069EE72E08CEC6E
:1020000097E00E94D50449E351E06FEF72E081E26E
:1020100097E00E94D5044AE351E066E173E081E570
:1020200098E00E94D5044BE351E060E373E08FE950
:1020300098E00E94D5044CE351E06DE473E087EE34
:1020400098E00E94D5044DE351E068E673E082E336
:1020500099E00E94D5044EE351E069E873E08DE613
:1020600099E00E94D5044FE351E067EA73E08DECFC
:1020700099E00E94D50440E451E069EB73E088E107
:102080009AE00E94D50441E451E06DEC73E08CE6E7
:102090009AE00E94D50442E451E067EE73E08EE0DE
:1020A00096E00E94D50443E451E06BEF73E083ECCB
:1020B0009AE00E94D50444E451E060E174E087E3D3
:1020C0009BE00E94D5048AE00E94AD008BEB91E07A
:1020D0000E94E2008AE00E94AD0060913804709195
:1020E000390480913A0490913B040E946C0183EB87
:1020F00091E00E94E20060913C0470913D04809167
:102100003E0490913F040E946C0188EA91E00E9495
:10211000E2006091400470914104809142049091EA
:1021200043040E946C018EE991E00E94E2008AE083
:102130000E94AD0080913C0490913D04A0913E042A
:10214000B0913F04892B8A2B8B2BF1F48BE991E022
:102150000E94E2008AE00E94AD0020913C04309190
:102160003D0495B185B18F7D95FF806285B92115BC
:10217000310569F44FEB87E299E04150804090408F
:10218000E1F700C00000EDCF83ED91E0E1CF4FE734
:102190008DE89BE5415080409040E1F7F2CFDC01B3
:1021A0002D923D924D925D926D927D928D929D9277
:1021B000AD92BD92CD92DD92ED92FD920D931D9365
:1021C000CD93DD93FF91EF918DB78D938EB78D9366
:1021D0008FB78D93ED93FD93882799270994DC01A0
:1021E000CB0181309105811D2D903D904D905D90EA
:1021F0006D907D908D909D90AD90BD90CD90DD9037
:10220000ED90FD900D911D91CD91DD91ED91FD91A0
:102210000D90F894FEBF0FBEEDBFED91FD910994B6
:102220005058BB27AA270E9428110C94A2120E9482
:10223000941238F00E949B1220F039F49F3F19F459
:1022400026F40C9491120EF4E095E7FB0C948B129B
:10225000E92F0E94B31258F3BA1762077307840775
:10226000950720F079F4A6F50C94D5120EF4E095BC
:102270000B2EBA2FA02D0B01B90190010C01CA0140
:10228000A0011124FF27591B99F0593F50F4503EEB
:1022900068F11A16F040A22F232F342F4427585FDD
:1022A000F3CF469537952795A795F0405395C9F7F5
:1022B0007EF41F16BA0B620B730B840BBAF09150AD
:1022C000A1F0FF0FBB1F661F771F881FC2F70EC04C
:1022D000BA0F621F731F841F48F48795779567951F
:1022E000B795F7959E3F08F0B0CF9395880F08F00B
:1022F0009927EE0F9795879508950E94671208F425
:1023000081E008950E9496110C94A2120E949B12E3
:1023100058F00E94941240F029F45F3F29F00C9489
:102320008B1251110C94D6120C9491120E94B3127C
:1023300068F39923B1F3552391F3951B550BBB27F4
:10234000AA2762177307840738F09F5F5F4F220F39
:10235000331F441FAA1FA9F335D00E2E3AF0E0E830
:1023600032D091505040E695001CCAF72BD0FE2F7A
:1023700029D0660F771F881FBB1F2617370748070E
:10238000AB07B0E809F0BB0B802DBF01FF279358C6
:102390005F4F3AF09E3F510578F00C948B120C94ED
:1023A000D6125F3FE4F3983ED4F386957795679510
:1023B000B795F7959F5FC9F7880F911D96958795FB
:1023C00097F90895E1E0660F771F881FBB1F62171A
:1023D00073078407BA0720F0621B730B840BBA0BD8
:1023E000EE1F88F7E09508950E94FB116894B111E3
:1023F0000C94D61208950E94BB1288F09F5798F053
:10240000B92F9927B751B0F0E1F0660F771F881FF9
:10241000991F1AF0BA95C9F714C0B13091F00E9413
:10242000D512B1E008950C94D512672F782F882724
:10243000B85F39F0B93FCCF3869577956795B3953A
:10244000D9F73EF490958095709561957F4F8F4FA9
:102450009F4F0895E89409C097FB3EF490958095AE
:10246000709561957F4F8F4F9F4F9923A9F0F92F5A
:1024700096E9BB279395F695879577956795B795D8
:10248000F111F8CFFAF4BB0F11F460FF1BC06F5FBE
:102490007F4F8F4F9F4F16C0882311F096E911C0D0
:1024A000772321F09EE8872F762F05C0662371F0F1
:1024B00096E8862F70E060E02AF09A95660F771F05
:1024C000881FDAF7880F9695879597F90895990FE1
:1024D0000008550FAA0BE0E8FEEF16161706E807EE
:1024E000F907C0F012161306E407F50798F0621B0F
:1024F000730B840B950B39F40A2661F0232B242BE4
:10250000252B21F408950A2609F4A140A6958FEF02
:10251000811D811D089597F99F6780E870E060E054
:1025200008959FEF80EC089500240A94161617066C
:1025300018060906089500240A94121613061406B4
:1025400005060895092E0394000C11F4882352F017
:10255000BB0F40F4BF2B11F460FF04C06F5F7F4FCF
:102560008F4F9F4F089557FD9058440F551F59F0B6
:102570005F3F71F04795880F97FB991F61F09F3F70
:1025800079F087950895121613061406551FF2CF99
:102590004695F1DF08C0161617061806991FF1CFE9
:1025A00086957105610508940895E894BB27662710
:1025B0007727CB0197F908950E94671208F48FEFEF
:1025C00008950E94F4120C94A2120E94941238F002
:1025D0000E949B1220F0952311F00C948B120C9406
:1025E000911211240C94D6120E94B31270F3959F8D
:1025F000C1F3950F50E0551F629FF001729FBB27FA
:10260000F00DB11D639FAA27F00DB11DAA1F649F95
:102610006627B00DA11D661F829F2227B00DA11D48
:10262000621F739FB00DA11D621F839FA00D611DCE
:10263000221F749F3327A00D611D231F849F600DEF
:10264000211D822F762F6A2F11249F5750409AF018
:10265000F1F088234AF0EE0FFF1FBB1F661F771FA4
:10266000881F91505040A9F79E3F510580F00C946F
:102670008B120C94D6125F3FE4F3983ED4F3869508
:1026800077956795B795F795E7959F5FC1F7FE2B0F
:10269000880F911D9695879597F9089597FB072EBA
:1026A00016F4009407D077FD09D00E94AE1307FC02
:1026B00005D03EF4909581959F4F08957095619552
:1026C0007F4F0895A1E21A2EAA1BBB1BFD010DC06E
:1026D000AA1FBB1FEE1FFF1FA217B307E407F507D2
:1026E00020F0A21BB30BE40BF50B661F771F881FAE
:1026F000991F1A9469F760957095809590959B0144
:10270000AC01BD01CF010895052E97FB1EF4009486
:102710000E949B1357FD07D00E94621307FC03D051
:102720004EF40C949B1350954095309521953F4F56
:102730004F4F5F4F089590958095709561957F4FAD
:102740008F4F9F4F08950E94C213A59F900DB49F75
:10275000900DA49F800D911D11240895AA1BBB1BF1
:1027600051E107C0AA1FBB1FA617B70710F0A61B91
:10277000B70B881F991F5A95A9F780959095BC01B2
:10278000CD010895A29FB001B39FC001A39F700D1A
:10279000811D1124911DB29F700D811D1124911D69
:1027A0000895FB01DC0102C001900D9241505040A0
:0827B000D8F70895F894FFCF5B
:1027B8000055AAFF5500000000A4709D3F85EB91CD
:1027C800C0DB0F494054F82DC000000000A4709DE4
:1027D8003F85EB91C0C3F54840A4702DC0010203AA
:1027E80004112233AABBCCDDEEFF11223344556617
:1027F800778899AA5566123499AA123456789ABCE1
:10280800DEF001020304050607080304050607A114
:10281800B2C3D4E5F60718D4E5F6070102030405A8
:1028280006FFEEDDCC0102FFEEDDCCFFFF0000006D
:1028380000785634122143658700EFCDABBADCFE31
:102848000000003412FACAADDE89674F4B002049F8
:10285800676E6F7265642000204661696C757265E9
:1028680073200020546573747320002D2D2D2D2D99
:102878002D2D2D2D2D2D2D2D2D2D2D2D2D2D2D2D80
:102888002D2D004641494C00504153530020456CC2
:10289800656D656E742000205761732000204578AF
:1028A800706563746564200020417267756D656E9C
:1028B80074200046756E6374696F6E20002E2000C8
:1028C80030006E616E00696E6600202800206D730E
:1028D8002900746573745C746573745F6532707213
:1028E8006F6D5C746573745F653270726F6D2E63A3
:1028F80000746573745F726561645F696E69745FA3
:102908006279746500746573745F726561645F6988
:102918006E69745F776F726400746573745F726553
:1029280061645F696E69745F64776F72640074656F
:1029380073745F726561645F696E69745F666C6FFA
:10294800617400746573745F726561645F696E6950
:10295800745F646F75626C6500746573745F777219
:102968006974655F726561645F6279746500746536
:1029780073745F77726974655F726561645F776F9E
:10298800726400746573745F77726974655F7265E9
:1029980061645F64776F726400746573745F7772E3
:1029A8006974655F726561645F666C6F61740074F9
:1029B8006573745F77726974655F726561645F647B
:1029C8006F75626C6500746573745F77726974659E
:1029D8005F616C69676E65645F3462797465730002
:1029E800746573745F77726974655F756E616C691D
:1029F800676E65645F6F66667365743100746573CE
:102A0800745F77726974655F6C617267655F756E14
:102A1800616C69676E656400746573745F77726969
:102A280074655F73696E676C655F627974655F75FD
:102A38006E616C69676E656400746573745F777244
:102A48006974655F70726573657276655F6E6569D6
:102A58006768626F727300746573745F726561642E
:102A68005F616C69676E656400746573745F726535
:102A780061645F756E616C69676E65640074657327
:102A8800745F726561645F6163726F73735F626FB5
:102A9800756E6461727900746573745F72656164E0
:102AA8005F7A65726F5F73697A6500746573745FC6
:102AB80077726974655F726561645F6C6F6F7000CF
:102AC800746573745F6F7665726C617070696E6738
:082AD8005F77726974657300F9
:10780000125634CDAB8967C3F5484054F82D405C1F
:107810000000000000000000000000000000000068
:0F78200000000000000000000000000000000059
:00000001FF
